:100000000C9472000C9493000C9493000C94930045
:100010000C9493000C9493000C9493000C94930014
:100020000C9493000C9493000C9493000C94930004
:100030000C9493000C9493000C9493000C949300F4
:100040000C9493000C9493000C9493000C949300E4
:100050000C9493000C9493000C9493000C949300D4
:100060000C9493000C9456020C9493000C949300FF
:100070000C9493000C9493000C9493000C949300B4
:100080000C9493000C9493000C9493000C949300A4
:100090000C9493000C9493000C9493000C94930094
:1000A0000C9493000C9493000C9493000C94930084
:1000B0000C9493000C9493000C9493000C94930074
:1000C0000C9493000C9493000C9493000C94930064
:1000D0000C9493000C9493000C9493000C94930054
:1000E0000C94930011241FBECFEFD1E2DEBFCDBF31
:1000F00000E00CBF12E0A0E0B2E0E8E8F9E000E0C8
:100100000BBF02C007900D92AE32B107D9F712E0D3
:10011000AEE2B2E001C01D92AB33B107E1F70E943D
:1001200010030C94C2040C94000087B1876F87B948
:1001300088B1807888B9089586E69EE00197F1F746
:1001400000004098419880E388B9429AEFEFF7E4C5
:100150003197F1F700C000004298E6E6FEE03197E3
:10016000F1F700004098419888B9429AEFEFF7E420
:100170003197F1F700C000004298E6E6FEE03197C3
:10018000F1F700004098419888B9429A8FEF97E4C0
:100190000197F1F700C000004298E6E6FEE03197D3
:1001A000F1F700004098419880E288B9429A86E6CB
:1001B0009EE00197F1F700004298089598B19F7072
:1001C00098B998B1282F207F922B98B940984198E0
:1001D000429AEFEFF7E43197F1F700C00000429840
:1001E00098B19F7098B998B18295807F892B88B912
:1001F00040984198429A8FEF97E40197F1F700C039
:1002000000004298089586E69EE00197F1F700000D
:1002100088E20E94DE0081E00E94DE0086E00E940B
:10022000DE008EE00E94DE0080E80E94DE0008957D
:1002300098B19F7098B998B1282F207F922B98B9C8
:10024000409A4198429AEFEFF7E43197F1F700C0F6
:100250000000429898B19F7098B998B18295807FBC
:10026000892B88B9409A4198429A8FEF97E4019779
:10027000F1F700C000004298089580E80E94DE0077
:100280000895CF93DF93EC018881882331F0219684
:100290000E94180189918823D9F7DF91CF910895A1
:1002A000823079F0833018F48130C9F405C083308E
:1002B00069F08430A1F40FC0862F81580E94DE00BF
:1002C0000895862F81540E94DE000895862F8D5652
:1002D0000E94DE000895862F8D520E94DE00089550
:1002E0000F931F93CF93DF938A01E901882311F0C5
:1002F000662319F40E943D0102C00E945001C530DE
:10030000D10571F4C80160E177E20E94AE04CB012F
:10031000C09690932F0280932E020E94180103C072
:10032000C430D105B9F4C80168EE73E00E94AE0490
:10033000CB0170933102609330026AE070E00E945A
:10034000AE04C09690933A02809339020E9418013D
:1003500081E001C080E0C330D10511F08130B1F4FB
:10036000C80164E670E00E94AE04CB0170933102D4
:10037000609330026AE070E00E94AE04C0969093F1
:100380003602809335020E94180181E0C230D10507
:1003900011F08130B1F42AE030E0C801B9010E94C7
:1003A000AE04CB017093310260933002B9010E9418
:1003B000AE04C09690933302809332020E941801DB
:1003C00081E0C130D10511F0813061F4C8016AE0EB
:1003D00070E00E94AE04C09690933802809337027A
:1003E0000E941801C630D1051CF085E40E94180156
:1003F000DF91CF911F910F9108953B9A43980895F3
:1004000086B1886088B9089586B1877F88B90895D4
:10041000259A2D9A0895E1E8F0E010828CEF809300
:10042000850081E08093840093E0909389008FEFB2
:100430008093880090938700809386008BEA809356
:100440008000109282008CE08083089510928900D1
:10045000682F70E080E090E00E9420042BE734E1F8
:100460004EEE5FE30E948C0320E030E04CE052E46B
:100470000E9428030E94F40360938800089583E09B
:10048000809389008FEF809388000895E1ECF0E07D
:1004900010821092C00086E08093C2008FE58093A6
:1004A000C4001092C50088E9808308951F920F92BE
:1004B0000FB60F920BB60F9211242F933F934F93C9
:1004C0005F936F937F938F939F93AF93BF93EF93BC
:1004D000FF938091C60080933402883311F486E044
:1004E00082B980913402823311F489E082B980911B
:1004F0003402843311F485E082B98091340286336A
:1005000011F48AE082B980913402853309F412B87B
:1005100080913402873311F40E94000280913402EA
:10052000893311F40E94040280913402803361F413
:100530008CE30E9426028FEF9FEFACE28150904047
:10054000A040E1F700C0000080913402813361F4E3
:100550008AE50E9426028FEF9FEFACE28150904027
:10056000A040E1F700C0000080913402833341F4E1
:1005700081E061E00E94500180E092E00E94410130
:10058000FF91EF91BF91AF919F918F917F916F916B
:100590005F914F913F912F910F900BBE0F900FBE27
:1005A0000F901F90189581B18F6081B982B1807FC3
:1005B00082B9EAE0F1E0808188618083EBE0F1E0DC
:1005C000808188618083089592B1907F8F70982B8D
:1005D00092B9089586E00E94E402089589E00E949D
:1005E000E402089585E00E94E40208958AE00E94F2
:1005F000E402089580E00E94E40208950E94D3027C
:100600000E9408020E94FD010E9495000895F8943E
:100610000E94FE020E940B020E94460278940895F6
:100620000E9407030E949C000E94030181E062E097
:100630000E94500181E192E00E94410182E063E06A
:100640000E94500181E292E00E944101FFCF505888
:10065000BB27AA270ED048C139D130F03ED120F0B7
:1006600031F49F3F11F41EF42EC10EF4E095E7FB28
:1006700024C1E92F4AD180F3BA17620773078407B0
:10068000950718F071F49EF562C10EF4E0950B2EFB
:10069000BA2FA02D0B01B90190010C01CA01A001D4
:1006A0001124FF27591B99F0593F50F4503E68F12F
:1006B0001A16F040A22F232F342F4427585FF3CF70
:1006C000469537952795A795F0405395C9F77EF441
:1006D0001F16BA0B620B730B840BBAF09150A1F08A
:1006E000FF0FBB1F661F771F881FC2F70EC0BA0F10
:1006F000621F731F841F48F4879577956795B79598
:10070000F7959E3F08F0B3CF9395880F08F099278F
:10071000EE0F9795879508950CD0E6C0DED040F097
:10072000D5D030F021F45F3F19F0C7C0511110C18E
:10073000CAC0EBD098F39923C9F35523B1F3951BA5
:10074000550BBB27AA2762177307840738F09F5FF2
:100750005F4F220F331F441FAA1FA9F333D00E2E61
:100760003AF0E0E830D091505040E695001CCAF7CE
:1007700029D0FE2F27D0660F771F881FBB1F261793
:1007800037074807AB07B0E809F0BB0B802DBF0166
:10079000FF2793585F4F2AF09E3F510568F08DC0A8
:1007A000D7C05F3FECF3983EDCF38695779567956D
:1007B000B795F7959F5FC9F7880F911D9695879517
:1007C00097F90895E1E0660F771F881FBB1F621736
:1007D00073078407BA0720F0621B730B840BBA0BF4
:1007E000EE1F88F7E095089598D088F09F5790F015
:1007F000B92F9927B751A0F0D1F0660F771F881F46
:10080000991F1AF0BA95C9F712C0B13081F09FD084
:10081000B1E008959CC0672F782F8827B85F39F022
:10082000B93FCCF3869577956795B395D9F73EF4A4
:1008300090958095709561957F4F8F4F9F4F08954C
:10084000E89409C097FB3EF490958095709561956A
:100850007F4F8F4F9F4F9923A9F0F92F96E9BB2720
:100860009395F695879577956795B795F111F8CF9C
:10087000FAF4BB0F11F460FF1BC06F5F7F4F8F4F07
:100880009F4F16C0882311F096E911C0772321F0FD
:100890009EE8872F762F05C0662371F096E8862F95
:1008A00070E060E02AF09A95660F771F881FDAF7EC
:1008B000880F9695879597F9089597F99F6780E82F
:1008C00070E060E008959FEF80EC089500240A94A2
:1008D0001616170618060906089500240A9412161B
:1008E0001306140605060895092E0394000C11F44E
:1008F000882352F0BB0F40F4BF2B11F460FF04C0FB
:100900006F5F7F4F8F4F9F4F089557FD9058440F53
:10091000551F59F05F3F71F04795880F97FB991F5E
:1009200061F09F3F79F0879508951216130614061B
:10093000551FF2CF4695F1DF08C0161617061806A8
:10094000991FF1CF86957105610508940895E89483
:10095000BB2766277727CB0197F90895AA1BBB1BF6
:1009600051E107C0AA1FBB1FA617B70710F0A61BAF
:10097000B70B881F991F5A95A9F780959095BC01D0
:08098000CD010895F894FFCFAA
:10098800202020204552524F522E2E2E2E2020203D
:1009980000547572746C6553696D20526F626F7480
:0E09A800005465616D204E6F2E2D33393400E2
:00000001FF
